:020000040000FA
:10000000D0080020B1010000F95600005D01000099
:1000100000000000000000000000000000000000E0
:10002000000000000000000000000000C30100000C
:100030000000000000000000C7010000973A000027
:10004000CB01000029430000414300005943000058
:1000500071430000D5010000D70100006D280000A9
:10006000A5280000DD010000BD51000099520000EC
:10007000E30100007D53000059540000E901000035
:10008000EB010000ED010000EF010000F1010000B4
:10009000F3010000293F00007D510000F9430000FA
:1000A0003D40000055400000FF010000010200003B
:1000B000030200000502000007020000755800005E
:1000C0007F5BF0FF00F002F800F038F80CA030C8B9
:1000D000083824182D18A246671EAB4654465D46C4
:1000E000AC4201D100F02AF87E460F3E0FCCB64656
:1000F0000126334200D0FB1AA246AB4633431847D1
:10010000FC7600001C770000002300240025002658
:10011000103A01D378C1FBD8520700D330C100D5C3
:100120000B60704710B5782902D100F08FF810BD30
:10013000002010BD1FB51FBD10B510BD01F04CFA59
:100140001146FFF7F7FF04F063F901F064FA03B416
:10015000FFF7F2FF03BC03F0C7FE00000420714666
:10016000084202D0EFF3098001E0EFF30880714606
:10017000004A1047D941000070B505460C461646A6
:1001800002E00FCC0FC5103E102EFAD2082E02D37B
:1001900003CC03C5083E042E07D301CC01C5361F8E
:1001A00003E021782970641C6D1C761EF9D270BDA5
:1001B0001948804719480047FEE7FEE7FEE7FEE7DB
:1001C000FEE7FEE7FEE7FEE7FEE7FEE7FEE7FEE707
:1001D000FEE7FEE7FEE7FEE7FEE7FEE7FEE7FEE7F7
:1001E000FEE7FEE7FEE7FEE7FEE7FEE7FEE7FEE7E7
:1001F000FEE7FEE7FEE7FEE7FEE7FEE7FEE7FEE7D7
:10020000FEE7FEE7FEE7FEE7FEE7000004480549DB
:10021000054A064B70470000B13A0000C5000000D7
:10022000D0030020D0080020D0040020D0040020FB
:100230000FB4054910B503AA029801F0AFF810BC3D
:1002400008BC04B0184700007C00002070B50446CC
:100250000D4621461068C046C0462188090502D5D2
:100260000F4A7A4402E00E4A7A440E3223460021B5
:10027000243305E006070009360F965D5E54491CDD
:100280000028F7D120780023000705D5702D03D072
:10029000002901D002231132204601F026F870BD5A
:1002A0009A740000F3B50446002081B02062204615
:1002B000E168884700287AD0252802D06268A168C2
:1002C00071E0E16820460025884706460020E0618D
:1002D0000746A0612A2E0AD0304603F0FDFD002813
:1002E00027D0B8000019303E0090866119E00298CE
:1002F000BA00121902C8916102902046E16888474D
:10030000012F064617D1E06900281FDA2020854317
:100310001CE000980A218069484300998019303810
:1003200088612046E1688847064603F0D5FD00282D
:10033000EFD1012F0AD02E2E08D12046E168884740
:100340000646202005437F1C022FC3DBA06900283E
:1003500003DA4042A06101200543E80701D01020E4
:100360008543002E23D030464138192803D8012078
:10037000C00205432036204625603146029A1546C4
:10038000FFF7D0FE00280BD0012806D0ED1DE808AD
:10039000C000083002908AE709E02D1D029586E72B
:1003A00062683046A1689047206A401C7EE7206A58
:1003B000FEBDF8B5042A2CD3830712D00B78491C54
:1003C0000370401C521E83070BD00B78491C03702E
:1003D000401C521E830704D00B78491C0370401C3C
:1003E000521E8B079B0F05D0C91ADF002023DE1B8E
:1003F00008C90AE0FFF7C0FEF8BD1D4608C9FD4068
:100400001C46B4402C4310C0121F042AF5D2F30836
:10041000C91A521EF0D40B78491C0370401C521E9E
:10042000EAD40B78491C0370401C012AE4D40978F3
:100430000170F8BD01E004C0091F0429FBD28B073D
:1004400001D50280801CC90700D0027070470029C6
:100450000BD0C30702D00270401C491E022904D3EE
:10046000830702D50280801C891EE3E70022EEE7A5
:100470000022DFE7002203098B422CD3030A8B42C0
:1004800011D300239C464EE003460B433CD400228C
:1004900043088B4231D303098B421CD3030A8B429E
:1004A00001D394463FE0C3098B4201D3CB01C01A6C
:1004B000524183098B4201D38B01C01A5241430937
:1004C0008B4201D34B01C01A524103098B4201D325
:1004D0000B01C01A5241C3088B4201D3CB00C01A92
:1004E000524183088B4201D38B00C01A524143080A
:1004F0008B4201D34B00C01A5241411A00D201462F
:100500005241104670475DE0CA0F00D049420310C7
:1005100000D34042534000229C4603098B422DD316
:10052000030A8B4212D3FC22890112BA030A8B42BE
:100530000CD3890192118B4208D3890192118B420D
:1005400004D389013AD0921100E08909C3098B4292
:1005500001D3CB01C01A524183098B4201D38B01D5
:10056000C01A524143098B4201D34B01C01A524178
:1005700003098B4201D30B01C01A5241C3088B42BD
:1005800001D3CB00C01A524183088B4201D38B00A8
:10059000C01A5241D9D243088B4201D34B00C01A32
:1005A0005241411A00D20146634652415B10104647
:1005B00001D34042002B00D54942704763465B108F
:1005C00000D3404201B50020C046C04602BD70477E
:1005D000704770470246C80FC00781434B0030B5D3
:1005E0004B405B009B0D20D01923DB06C91801236B
:1005F0001B05994220DB0324A40704251346AB40C6
:100600000BD3002B04D1EB0613409B00E34204D430
:1006100001246407002312195941FF231B05994245
:100620000BD2C9000143500F09E0CB0204D50143AE
:100630000803024305D0054830BDFF21C905084322
:1006400030BD084607210905884330BD0000C07F42
:10065000F0B50C46871A9C410D46861A9D4103D27F
:10066000C01BA141D21963410D0D1F0DC94EEC1BDA
:10067000AE435CD07F057F0D0026002F51D02D05A5
:10068000AC46A943DD020123ED0A1B051D432023CF
:100690001B1B24D41746E740381871412F46E7400A
:1006A000CC199D402818314661410C0D27D1614479
:1006B0009A4013D50023401C594152000ED14008E6
:1006C000400001224B005205D34207D305204007CA
:1006D000C14201D5B04900E0B0493046F0BD6B00E1
:1006E000002A00D001229A181F23203C1B1B01D591
:1006F000002302E0E540281871410C0DD7D00124F9
:1007000024050919C407CD0740084908E40F284308
:100710006144002CD5D00024401C61419A40D0D1C6
:10072000CDE76A05520DD9D1C90FC907D5E79C4D50
:100730004E00002801D0012400E0002434195F009D
:10074000002A01D0012600E00026BE19954FAC42D8
:100750000CD8AE420AD8B44206D001256D05EC4251
:10076000BCD010461946F0BD9942FCD00020394655
:10077000F0BDF0B51FB40C460F46811A9F412546C7
:10078000861A9D4106D20125ED076F40401ABC41F3
:1007900052187B41210D1E0D8D1BAC467D4D8D43A6
:1007A0007ED075056D0D7CD00D05AE46AC431B03A8
:1007B0001B0B794D52429D41202366469B1B14D34F
:1007C0001746F740381800260090744160462F46BF
:1007D0000741E41900989D402818664116D47146D7
:1007E00071189A4025D5012320E093182A466A41C2
:1007F0005200002B00D0521C1E23203E9B1B002BBE
:1008000061DD3541EE1728186641E8D500187641BC
:100810005B1C9A4000D3401C4B05F3181524E340A1
:1008200010D3002B52D071467118D30FC01802D3C9
:10083000491C05B0F0BD0123DB079A42F9D14008FD
:100840004000F6E701225205B21801D1002853D02A
:100850000123CC0ADB029943891E002A08D1020C2D
:1008600003D0020C0004103902E0024600202039B7
:100870000023550B05D112020823550B01D152015B
:100880000D23550C01D112011B1DD50C01D1920075
:100890009B1C150D01D152005B1C2025EE1A01E0B6
:1008A0002CE022E00546F54015439840CA1AE107BE
:1008B00069181305C918002ABBDA03204007081875
:1008C000C10FC9070FE071466118B2E7F107400890
:1008D0000843711071444A000CD001235B059A4211
:1008E000A7D2C90FC9070020A3E74905490D26D1A2
:1008F000002001E00028F4D100219AE7284D66008D
:10090000002801D0012100E0002171185F00002AB9
:1009100001D0012600E00026BE19224FA94210D8BE
:10092000AE420ED8B14208D001256D05E94206D08D
:100930001946A802414010467BE79C4201D021465F
:1009400077E70020394674E710B50C465C4005D5C2
:100950000124E4076340FFF70CFF10BDFFF778FEAA
:1009600010BD30B40C465C4004D50124E40763405C
:1009700030BC6DE630BCFCE670B50124E407614094
:100980000D465D4002D4FFF763FE70BD6340FFF784
:10099000F0FE70BDFF0700000000F0FF0000F07FD8
:1009A0000000E0FF0000F87FF0B5F94D0C091E09CA
:1009B0002C402E402F468BB0A7437DD0B543FCD0B2
:1009C000002E7AD0002CFCD00D465D40ED0F254363
:1009D000AC1BFF25AD0464190894C502440DC9027F
:1009E0002143500DDC0204430120C00701430443AE
:1009F000D2020191200C110C00958C460104234673
:100A00008B430A9161460904E24D8A430991010A28
:100A10007D4449198039097805464D4301266D18F2
:100A2000F605751B6943C90C640B891C4C4364189B
:100A3000B5012C1B250C2E04B4434C434D43210C13
:100A4000691889090591009DE90701D00121C907AD
:100A500004912C4601996708CD072F434C08059D4A
:100A6000E10B4D432D0C29466646754302950D4614
:100A700045432E46029D7D1BB44100950D465D43C6
:100A800001942C0C2F040D465543AE462D0C3D43CE
:100A9000029503947546049C2D04641B049406D2AD
:100AA000029C039D641C002675410395029401ACD1
:100AB00070CC009F7D1B01E03EE162E1B44109047E
:100AC0000095079101940599A4086143090C0C460F
:100AD0004443650BE7040C4666467443A646640B24
:100AE0003C43039502947446049DE4042C1B049437
:100AF00006D2029C039D641C002675410395029456
:100B000001AC70CC009F7D1BB44101940C465C434A
:100B10000095650FE7000C465443A646640F3C431E
:100B2000039502947446049DE4002C1B049406D2A1
:100B3000029C039D641C002675410395029401AC40
:100B400070CC009F7D1BB441AE09AF06049DC90067
:100B5000AD092F43049DA406AD060495079D3443BB
:100B600069180791059DE10B4D432D0C29466646FA
:100B7000754302950D4645432E46029D7D1BB441AB
:100B800000950D465D4301942C0C2F040D465543F2
:100B9000AE462D0C3D43029503947546049C2D04EE
:100BA000641B049406D2029C039D641C00267541BC
:100BB0000395029401AC70CC009F7D1BB44101945D
:100BC0008C050694079C890A611800950791019C81
:100BD0000599A4086143090C0D464543680BEF04D1
:100BE0000D46644665436C0B3C43049FED047D1B3E
:100BF000AC4602D20025641C6841009E019D371B53
:100C000085410846584301950C46460FC50054439C
:100C1000600F28436546E4002C1B02D20025401CCF
:100C20006E41019D3F1AB5412846BD098006284303
:100C30008446A009BF064E020699A406761807430B
:100C4000079D002068410A99079019430020099BDD
:100C500000906046FF1913434041E20F64003A439D
:100C6000A4460446D71A8C41A04203D90120009023
:100C700020463A46C70F941840416246D20F22439D
:100C8000644664000494009CBE466400D71AA446DF
:100C9000044602978C417746002F01D1A04204D927
:100CA0006046401C8446029A2046C40FA64694180B
:100CB0004041049A0546D20F224364466400D31A89
:100CC0008D417146002901D1A84202D928461A4611
:100CD000641C10430122002800D01643610200204A
:100CE000079B891904465C410223002C02DB49184A
:100CF00013466441089DCE0A2D145D194B05670506
:100D0000E10A2C050D1908993E43C9076940002BDB
:100D100008D0934006D30022761C5141002B01D10C
:100D2000760876001C4A002D43DB154241D0AA43C9
:100D30003FD030460BB0F0BD06180D464D41174C64
:100D40007642AC411AD395181C465C41134A6D4259
:100D5000A24113D3012252054C00D4420AD15C00B7
:100D6000D4420BD04B4002D592021143E2E7490036
:100D70004908DFE75940C90FC90718E000200849B2
:100D8000D8E7054801420DD10342F7D0F2E7000051
:100D90000000FF07146D00000000F07F0000E0FF7E
:100DA0000000F87F114859400143C0124140002023
:100DB000C0E70123089A9B069A4205DC03225207EA
:100DC0008918C90FC907B5E7052252078918074ACC
:100DD0001143D2125140ADE770B515461C4602468C
:100DE0000B4628462146FFF7DFFD70BDFFFFFF7F62
:100DF0001F22030C02D10F22000402D0030E03D0E5
:100E000004E00020014670470002083A030F01D1B8
:100E10000001121F830F01D18000921E002801DB08
:100E20004000521E120551184205C01241181046CA
:100E30007047C10FC90700D04042012292071143F9
:100E4000D6E701218907D3E7F0B58B4C0F0925467A
:100E500089B0BD437BD01D092646AE43FAD00E466D
:100E60005E402740F60F3E43254071D024012142C9
:100E7000FBD0FF24AD19A4042D1B039501252D05DE
:100E8000DB02DB0AC9022B43C90A29431E010901FF
:100E9000040F130F050121431701880B82039143AF
:100EA0002D098C46A90B1E438A039543B30B9A0365
:100EB00096433F09BA0B9403A74302962E467E43FE
:100EC0000497B6464E19D7190C4601965443059718
:100ED0007E43371B7646BF1B3601B646BE0B36191E
:100EE00000967646BC043719009C01D3641C00941C
:100EF0006400002F01D001263443029E049F7543F5
:100F000066467E430496760034196E0034190094C8
:100F1000029C019E1C196643751BAE4606946546ED
:100F20004519059C05956C43594375460891691A06
:100F30000191049E01465143A41B0491611A009C37
:100F40000791E10605D061090122114302E072E038
:100F50006EE06109089D00272C0A2D066918049D82
:100F60007C412A0A2D066918019D6241AC0DAD0233
:100F70006D185441079A910D920255196141029AD8
:100F8000644658435443069B059A5A43121A131B4E
:100F90009A0E9B015B187A41010B0005C318514161
:100FA000220A200644195A419A4200D2491C0120C3
:100FB0004002814203D315230226F64302E01423A4
:100FC0000326F6432020C51AA9401746AF40DA4051
:100FD0000A4320460399D84009147318190551187B
:100FE000039A3843D2075140AC4009D001229440C3
:100FF00006D30022401C5141002C01D14008400082
:101000001E4A934212D3012203989206904207DBB4
:101010000520400709181A480143C012414004E066
:10102000032040070818C10FC907002009B0F0BD10
:101030000020F107FAE705180C464C4111486D42B3
:10104000A04115D394181A465A410E486442904163
:101050000ED301204A004005824209D35A00824241
:1010600006D35940C90F084AC90700201143DDE7DC
:1010700000200649DAE700000000FF07FE07000035
:10108000FFFFFF7F0000E0FF0000F07F0000F87F1F
:1010900070B505464800440D124B0020002C0AD0C4
:1010A000634008D09A4206DA6642B24203DD120576
:1010B0004019514170BD002C08D0002B09D0C90F38
:1010C000C907002AF6DB084A114370BDC90FC907DA
:1010D00070BD28460A03104302D00020034970BDAA
:1010E000284670BDFF0700000000F07F0000F87F79
:1010F0000121C9050123411842001B06D3185B0ECC
:101100000AD0C1100722D206891840075242D142A4
:1011100001D5520089187047090208D50146002AF6
:1011200003D0C10FC9070020704710467047420224
:1011300002D0002002497047072109050143F4E766
:101140000000F87FF0B5FF252D04C609C209FF276E
:1011500004462E400137CB093E4348402A402B40ED
:101160000746002A6BD0002B69D0AA4267D0AB4259
:1011700065D0002800DA32460125ED0529432C43CD
:1011800009022002090AD21A4B0C7F24E31A434CAD
:10119000000A7C44E35C7D242404121914145B00CF
:1011A000A218884201D3521C00E0400049420C467C
:1011B0005C4324115C43DB016415E318040A5C43BF
:1011C000C502200D0C4644436419250A5D432303E0
:1011D000EC0C0D46654300030019EB184C42A3428A
:1011E00001D35B18401CD4052018002B07D05B00EE
:1011F000C91804D3401C002901D1400840003F21F8
:1012000089048A4209D3002A08DC1106090F04D098
:10121000032149074018C00FC007F0BD012241005B
:10122000120689187F2252069142F6D205214907FB
:10123000C84201D59010F0BDFF20C005F0BD002FC1
:1012400000DA32461648AA4207D2AB4205D219024A
:10125000090E17D0F80FC007F0BDFF2563002D065B
:10126000AB42F9D84900A942F6D8AB4201D1A94214
:10127000F2D0A94201D1002101E061004908D00566
:101280000843F0BD1102090EFBD0FF200243D00538
:10129000F0BD0A460146104654E700001266000001
:1012A0000000C07F0102C21504D00123DB071943EF
:1012B000002A0ADB9E239A1A02D40846D0407047BF
:1012C000FF2241001206914201D900207047C01749
:1012D000C043704710B500F03DF9006810BD10B56F
:1012E000044600F037F9046010BDFFB504460D4612
:1012F00081B0243000902168880604D51022E0696E
:101300009143216000E00120A84201DD471B00E07D
:1013100000270498A1697A191018081AA06120788A
:10132000C00602D42046C046C046002608E0039806
:101330006268A168805D9047206A401C761C20622C
:1013400004988642F3DB2078C0060AD52046C046C2
:10135000C04606E06268A16830209047206A401CC1
:10136000206238467F1E0028F4DC07E0009862689F
:10137000A168405D9047206A401C206228466D1E8F
:101380000028F3DC2046C046C0462078000602D57F
:10139000022005B0F0BD0120FBE70000084B70B54E
:1013A0000D467B4400F0DFF80446284602F004FFB7
:1013B000002802D00020C04370BD204670BD000050
:1013C000192E0000F8B5224C4E00069DA6420AD800
:1013D000A64201D1002806D15E00A64203D8A6424B
:1013E0000AD1002A08D00D24240425422CD02946F5
:1013F000002000F0CBF8F8BD0C461C430CD49942F9
:1014000002D0EFF30080F8BD904202D0EFF30080ED
:10141000F8BDEFF30080F8BD09242407E5008B42F6
:1014200006D0EFF30080A043591A06D2284304E007
:10143000101A05D3EFF30080A04380F30088F8BDB5
:10144000EFF30080A043F1E7009500F0B7F8F8BD96
:101450000000E0FFF0B53D4B02460C461C4000206A
:10146000002C63D03A4D8B4366D000296BDB0B0D0B
:101470001D05A94301252D0529430124FD33E34022
:1014800001D392184941FF3381339C468B02940D5E
:101490000121234389074C42920200271B198C101B
:1014A0005D1A04D42D1B02D42B46650049199218ED
:1014B0005B416408F4D15C1A08D40125ED07EE17EE
:1014C0005519744102D42A462346491C94185B419D
:1014D000012292071D46E61B8D4106D4B61A8541AE
:1014E00003D42B46550034467F1924195B4152081A
:1014F000802AEFD1234300D0022338460A22D0406D
:1015000001D3012213438A0510436246890A12055A
:101510008918002B09D00122D34002D30022401C9D
:101520005141002B01D140084000F0BD0B03134393
:1015300007D0C90FC907F0BD0803104303D1002924
:1015400001DB1046F0BD00202946F0BD0000F07F11
:101550000000F87F004870476C03002001694A1CB6
:1015600002610878704700B58FB0029100210591A3
:101570000549019379440391114604906846FEF7AA
:1015800091FE0FB000BD0000E5FFFFFFC80212D5BD
:101590004803400F002804D0C803C04301218840FD
:1015A0007047EFF300800001000903210907084399
:1015B00080F30088704700207047000010B50020BD
:1015C0000249029A00F02FF810BD00000000F87FD9
:1015D000004870476C0300207546FFF7F9FFAE46E0
:1015E000050069465346C008C000854618B020B5BE
:1015F000FEF70CFE60BC00274908B6460026C0C5B1
:10160000C0C5C0C5C0C5C0C5C0C5C0C5C0C5403DBA
:1016100049008D46704710B50446C046C046204676
:10162000FEF795FD10BD10B50C461107090F0929ED
:1016300004D00A290AD008290CD104E01146082058
:10164000FFF7A4FF06E0510606D501E0510601D5DB
:101650000120C007214610BDD10607D501010909A7
:10166000CC084907000E0006044309E0410F2002A0
:101670004907000A0143200E00061D22D141014303
:101680000846E7E770B58C180578401C6B075B0FC0
:1016900001D10378401C2A1106D10278401C03E0D6
:1016A0000678401C0E70491C5B1EF9D12B0705D42F
:1016B0000023521E0DD40B70491CFAE70378401C1E
:1016C000CB1A921C03E01D780D70491C5B1C521E46
:1016D000F9D5A142D8D3002070BD0000F8B5002490
:1016E0008C461B4B194D0121264619701949087269
:1016F0002046401C6428FCD3002063469B1C1BE052
:1017000014490F7880210F4312490F70124F397816
:101710000029FCD0002139700E4FF9891180F98918
:101720000C19F989921CA94201D2FD8903E0F989BB
:10173000B14200D9FE89401C9842E1D3A01B401B56
:101740006146FEF797FE80B2F8BD0000FFFF000083
:10175000546100400050044054600040F8B5164801
:101760000126067015480178202739430170144C72
:101770000025257013480570152002F067FB1248FC
:10178000C1783143C170C1783943C170C178042236
:101790001143C17028202070A570A078A070A07897
:1017A00008210843A0702571A571FF20E072A57281
:1017B000207830432070F8BD54610040200402407E
:1017C000005004405460004060000440024801782A
:1017D00049084900017070470050044010B507489F
:1017E00001784906490E0170054901200870054934
:1017F00000200870152002F029FB10BD00500440A5
:101800005461004054600040F8B5314C606E4000B7
:10181000000E02D100F078FD606600F075FDFFF764
:1018200067FC0227FF433A46FFF732FC05460E46A7
:10183000606EFFF75DFC0022264BFFF705FB3A4682
:10184000FFF726FC2A463346FFF77EF8FEF7C2FE76
:10185000214905466066884202DC0120E073F8BD3C
:101860001E488542FBDDE07B002801D00020E073AC
:101870001B49284604F0D4F8FFF714FDA678002190
:101880000346002E01D0174A05E0164A607D143A3F
:10189000002800D1642100208700D7597F189F427B
:1018A00003D8401CC0B20528F6D36075002ED6D0F0
:1018B000E078002804D10C488542D0DB0120E0709C
:1018C0008120C0058542CADA0020E070F8BD000022
:1018D000C402002000001C4085EB51406666564063
:1018E00000007A44C8760000F628844000B5C02184
:1018F0008978CA081549D20009781143E0390B00EC
:1019000002F096FA13171B1F210C0C0C0C0D11156D
:10191000191D0C0C0C0B0F130C000D4800BD0D48CD
:1019200000BD0D4800BD0D4800BD0D4800BD0D486F
:1019300000BD0D4800BD0D4800BD0D4800BD0D485F
:1019400000BD0D4800BD0D4800BD0000201C024038
:101950000090D003006CDC020048E80100366E0104
:101960000024F400001BB70000127A00808D5B0099
:1019700000093D00C0C62D0080841E0040420F00BB
:1019800010B50021012001F04BFD002801D00020FE
:1019900010BD012010BD0000F8B50121032001F0A9
:1019A0003FFD002810D000240621032001F038FD5F
:1019B00000280BD00020214D2043297800268842A2
:1019C00006D028706E70F8BD0124EDE70320F2E721
:1019D0006878032802D2401C6870F8BDC807012748
:1019E000174C0028A0780CD0002813D1A7702078BD
:1019F000002803D10121042002F09CF8606BA0654F
:101A000008E0002804D0A670606BA065FFF7FCFE1C
:101A1000E6706E60287880070DD5A07800280AD07F
:101A200068681E2802D2401C6860F8BDE078002873
:101A3000FBD1E770F8BD6E60F8BD0000C800002063
:101A4000C402002010B50446FF2169310348FEF7A7
:101A50000DFD002C01D002F0A1F810BD5C010020AA
:101A600010B50248407D00F0F7F810BDC402002018
:101A700010B5FF22693203490348FEF79AFC02F0D1
:101A80008DF810BDA96600005C010020FEB5410084
:101A90001F4A400089188E8B114640180A252E27B0
:101AA000808B2946FEF7E6FC0C462946FEF7E2FC51
:101AB000303130340D46642E0DD364213046FEF7AC
:101AC000D9FC0A21FEF7D6FC68463031017045701A
:101AD0008770C47005E068460170477084703021DB
:101AE000C1705721017100214171084609490A1846
:101AF0004032D37E401C9B099B01C0B2D37629287B
:101B0000F5D36A460921132001F0EEFAFEBD00006C
:101B1000C40200205C01002010B504460D494000BD
:101B20004018808B0A214843FF219131FEF7A2FC27
:101B30000106090E0CD00C2900D90C211B22E00053
:101B4000511A1830C0B2C9B21A2201F07CFB10BD84
:101B50000121F3E7C4020020FEB5002430212E2528
:101B60005326642808D3312268460270417085707C
:101B7000C1700671447111E06A4611700A21FEF7C6
:101B800079FC0F460A21FEF775FC6A463031517028
:101B9000394695703031D17016715471084A002061
:101BA00011184031CB7E401C9B099B01C0B2CB7603
:101BB0001428F5D36A460921132001F095FAFEBDD9
:101BC0005C01002014491CB50818203080790A21D6
:101BD000FEF750FC0C460A21FEF74CFC68463031FB
:101BE00001702E2141702146303181705321C17026
:101BF00000210171094A084611184031CB7E401C72
:101C00009B099B01C0B2CB761428F5D36A46092103
:101C1000132001F069FA1CBDC40200205C01002001
:101C200010B500242046FFF777FF641CE4B2052CB2
:101C3000F8D310BD10B5052800D905202721484349
:101C40000349272241180348FEF7B3FB10BD0000EB
:101C50002C5E00006C01002070B50446FF21693144
:101C60003248FEF703FC3148F0264030C675067650
:101C700019300021CC250C23037043700022801CF6
:101C80008C4201D9057000E00370521C401CD2B296
:101C9000052AF5D3491CC9B20529EDD30370437059
:101CA0008670C6702148FF258030C5772030411CE2
:101CB000057000221046087048700023891C944269
:101CC00001D90D7000E008705B1C491CDBB2052BCC
:101CD000F5D3521CD2B2052AEDD3087048708D702E
:101CE000CD707F200871487110480726E030C6711A
:101CF0000672093000211925182303704370002251
:101D0000801C8C4201D9057000E00370521C401CFD
:101D1000D2B2052AF5D3491CC9B20529EDD3037007
:101D200043708670C67001F039FF70BD5C01002001
:101D30007CB50546184903F073FEFFF7B3FA84B289
:101D40001649E12080008D4201DB844200D9002445
:101D500064212046FEF78EFB0A21FEF78BFB6846C6
:101D6000303101702E2141700A212046FEF782FB9E
:101D70000C460A21FEF77EFB684630318170214611
:101D80003031C1704F210171002141716A4620211B
:101D9000102001F0F1F97CBD0000C842CDCCCC3D53
:101DA00010B5094CA06EFFF7C3FFA078002804D03F
:101DB000E078002801D0052000E0607DFFF73AFFC1
:101DC00000F082F810BD0000C402002010B50446E7
:101DD00009488079002801D101F044FAFF226932D4
:101DE000002C01D0054900E005490648FEF7E1FA5C
:101DF00001F0D4FE10BD0000C4020020196F0000E5
:101E0000B16D00005C01002010B5FF22693203496A
:101E10000348FEF7CEFA01F0C1FE10BD11680000C4
:101E20005C01002010B5FF22693203490348FEF728
:101E3000C0FA01F0B3FE10BD796900005C0100201A
:101E400010B5154CFF22E17E20466932407800290A
:101E500005D0002811480ED08721C9000DE00028C8
:101E60000E490F4801D0FF316931FEF7A2FA208BED
:101E700000F0F6FF0AE02D21090141180848FEF79D
:101E800098FAFFF7CDFE0020FFF700FEFFF788FF6E
:101E900001F084FE10BD0000C4020020165F0000A7
:101EA0005C01002010B505A20F21002001F0A8F868
:101EB00003A20F21192001F0A3F810BD4E4F00001E
:101EC00044415441000000001CB510486421848F37
:101ED0002046FEF7CFFA0A21FEF7CCFA6A463031E7
:101EE00011700A212046FEF7C5FA0C460A21FEF7BA
:101EF000C1FA6A463031517021463031917000206C
:101F0000D07020212F2001F037F91CBDC402002021
:101F100010B5FF22693203490348FEF74AFA01F07F
:101F20003DFE10BDE16A00005C01002010B505A275
:101F30000F21052001F064F804A20F21282001F0F0
:101F40005FF810BD54494D45000000004F55540046
:101F500010B5044617488179002903D10121817108
:101F600001F080F9230001F063FF0B1C1F0722160C
:101F70000D1009130A190900FFF762FF10BDFFF7E2
:101F800077FD10BDFFF74EFF10BDFFF7C1FF10BD7D
:101F9000FFF7CCFF10BDFFF737FF10BDFFF794FF31
:101FA00010BD01F0F9F910BD01F0BAF910BDFFF74D
:101FB00057FD10BDC402002070B50C460146E0007C
:101FC00018301546C0B200290FD01B21491BC9B2D9
:101FD0001A2201F038F908488078A04204D1012281
:101FE0002946204601F008F970BD1A2302460F2148
:101FF00000F0AAFE0022F3E70401002000B501462C
:102000000722002001F0B0FF00BD0000F0B589B04C
:102010002C482D492D4C2E4E08900868552835D156
:10202000081E33D0054668462022FEF7C2F96846EE
:10203000079FFFF7E3FFB8422BD12022694608989B
:10204000FEF79AF81F4E7079002800D001206070CA
:10205000F0881C490005000D20831C480A220C3121
:102060001C30FEF789F8174918480522163126302A
:10207000FEF79FF93089A087F07E2035C007C00F9A
:10208000E076256601F03CFA09B0F0BD2039B14296
:10209000C3D20020A087E07660700A202083FA2057
:1020A000A083E08320846084A08408481421203029
:1020B0008171C171017241728172304603F0A0FBDF
:1020C0002666DFE74C030020E0035000C402002036
:1020D0000002500070B51F4D28792C6E002837D0B3
:1020E000002028711C4E552030606878002800D0F0
:1020F00001207071288B17490005000DF080A88F12
:102100003081E87E0A22C007C00FF07612481C31E9
:102110000C30FEF731F80F490F48052226311630F2
:10212000FEF747F90C48FFF769FF0C49F0610C48CE
:102130008C4203D9044603F063FB02E0844200D2E0
:102140000446054A2021204603F077FB20342C6604
:1021500070BD0000C40200204C030020E0035000CA
:10216000000250000249002208780A7070470000FF
:10217000340100200149087070470000340100203C
:10218000F0B5032289B00021104601F053F9072170
:10219000032001F03BF9012001F068FF4C4A0821BF
:1021A0000920FFF79BFA01900721032001F09EF917
:1021B00003220021104601F03DF9454C45490198A4
:1021C000454E3E3C88426DD201210903081AFEF7B4
:1021D00038FE05460F460198FEF733FE3F4A404B56
:1021E000FEF732FE2A463B46FEF7DEFBFEF7F2F92B
:1021F00005467D20C0053B4F854209DD2846FEF798
:1022000077FF3A46384BFEF79FFBFEF7E3F90546AA
:102210003649A06E884224DB3549884221DCFEF72E
:1022200067FF304A334BFEF78FFB04900591284639
:10223000FEF75EFF00900F46059B049A03F0BCFB7F
:102240000FD3A06EFEF754FF029106903946254A3F
:10225000284B0098FEF778FB029B069A03F07AFB66
:1022600002D22846A56619E002223946D2430098D8
:10227000FEF70EFF05460F46A06EFEF739FF00225F
:102280001D4BFEF7E1FD0222D243FEF701FF2A4675
:102290003B46FEF759FBFEF79DF9A066B04203DB13
:1022A000A66607E0A666FBE77D21C905884201DA3C
:1022B000012000E000201149114A0870A16E114868
:1022C000914201DD012100E00021017009B0F0BD63
:1022D00002030020B80B0000CDCCC742CDCCCCCC43
:1022E000CCCC0040B81E85EB51B88E3FCDCC4C3DD8
:1022F0000000404051B8AE3F00001C40B00000203C
:1023000066665640B100002010B5084A0821072033
:10231000FFF7E4F9FEF795FD02460B46002004495D
:10232000FEF742FBFEF756F910BD00000203002045
:102330000000C84070B50C4A08218120FFF7CEF993
:10234000FEF77FFD044608480D463E38006FFEF755
:10235000CFFE0C22FEF79CFE22462B46FEF724FB06
:10236000FEF738F970BD00000203002010B50E49D9
:102370004A7C002A0ED00818203080790A21484370
:102380001421FEF777F80006000E0BD00C2800D9B8
:102390000C2010BD40004018808B0A214843FF21CB
:1023A0009131EEE7012010BDC402002000B5413894
:1023B000030001F03DFD1A300E1012141630181AE9
:1023C000301C1E302022243026282A2C3030303079
:1023D0002E30012000BD022000BD032000BD0420DE
:1023E00000BD052000BD062000BD072000BD08205F
:1023F00000BD092000BD0A2000BD0B2000BD0C203F
:1024000000BD0D2000BD0E2000BD0F2000BD10201E
:1024100000BD112000BD002000BD000070B5114AB4
:10242000082115460720FFF759F904462A460821D6
:102430000C20FFF753F906462046FEF702FD05463D
:102440000C463046FEF7FDFC0022074BFEF7FCFC75
:102450002A462346FEF7A8FAFEF7BCF80349FEF722
:1024600071FE70BD020300200070A74000007A4496
:1024700070B5144A082115460720FFF72FF9124CB2
:102480002A46206008210920FFF728F906466060E7
:102490002068FEF7D6FC05460C463046FEF7D1FC18
:1024A00000220A4BFEF7D0FC2A462346FEF77CFAB0
:1024B000FEF790F80649FEF745FE02493E39C86628
:1024C00070BD000002030020B40000200070A7408F
:1024D00000007A4410B50121002001F007F8022124
:1024E000002001F003F800BF00BF00BF00BF00BF25
:1024F00000BF00BF00BF00BF00BF00BF00BF012181
:10250000002000F083FF00BF00BF00BF00BF00BF7E
:1025100000BF00BF00BF00BF00BF00BF00BF02215F
:10252000002000F073FF10BD10B50121002000F065
:102530006DFF00BF00BF00BF00BF00BF00BF00BFF6
:1025400000BF00BF00BF00BF00BF0221002000F09D
:10255000CDFF00BF00BF00BF00BF00BF00BF00BF76
:1025600000BF00BF00BF00BF00BF0121002000F07E
:10257000BDFF10BDF8B5CC07C507524F524AE40F56
:102580000023002D20D0514E022535747D78012680
:1025900035437D704E4D6E78760876006E704D4EE8
:1025A000012535704C4D2B70557E6D086D005576AC
:1025B000157E6D086D001576557E25435576157E82
:1025C0008E07F60F35431576022685073140002D1C
:1025D00021DA3E4D0326AE747E7802252E437E70AE
:1025E0003B4D6D78FD263540394E7570394E0125CD
:1025F000361D3570384D2D1D2B70557EFD2635400E
:102600005576157E35401576557E660035435576F0
:10261000157E0D431576450721D52C4E04253575BD
:102620007E782E437E702A4D6D78FB263540284EED
:102630007570284E012508363570274D08352B70EA
:10264000557EFB2635405576157E35401576557EF0
:10265000A60035435576157E4E00354315760007A6
:1026600022D51A4D052020352875B8782025284315
:10267000B87017488578DF2635408570154D0120E4
:102680000C35287014480C300370557EF720054037
:102690005576157E05401576507EE4002043507631
:1026A000107E8900084310766846037004E000BF7E
:1026B00069460878401C0870684600780128F6D9F9
:1026C000F8BD000020030440205B044000080440E3
:1026D000600004400461004004600040C207002123
:1026E000002A03D00E4A11700E4A1170820705D5D8
:1026F0000B4A121D11700B4A121D1170420705D5AD
:10270000074A08321170074A08321170000705D5D0
:1027100003480C30017003480C3001707047000012
:102720000460004004610040C30700210122002B27
:1027300003D00E4B1A700E4B1970830705D50B4B47
:102740001B1D1A700A4B1B1D1970430705D5074B3B
:1027500008331A70064B08331970000705D5034873
:102760000C30027002480C30017070470461004068
:102770000460004010B500210122084600F05AFE16
:102780000521022000F0B2FE04220521022000F003
:1027900051FE0521022000F0A9FE0322002110466F
:1027A00000F048FE04220621022000F043FE06212C
:1027B000022000F09BFE04220321012000F03AFEDB
:1027C0000321012000F022FE04220721032000F053
:1027D00031FE0721032000F089FE0522042102209A
:1027E00000F028FE0421022000F010FE0422012146
:1027F000002000F01FFE0121002000F007FE04224F
:102800000221002000F016FE0221002000F0FEFD53
:1028100005220421022000F00DFE13490020087556
:1028200003220221104600F005FE03220521104676
:1028300000F000FE01221146032000F0FBFD012202
:102840000621032000F0F6FD01220021104600F0D1
:10285000F1FD01220221104600F0ECFD012211469B
:10286000104600F0E7FD10BD2008044070B5094B8C
:1028700000221A7008480188002909D0074C2168F5
:102880000D78074E3572491C21600188491E018070
:102890001A7070BD1C6000403A0000206C000020DF
:1028A000401704407CB5154B00221A70144841882B
:1028B0004C07640F69460C700978418169460878B5
:1028C000002800D008780F48807A08710E4C2188C3
:1028D0000E480588A9420CD969460E790C4D296825
:1028E0000E70491C29600188491C018021880088DC
:1028F00001E0684600791A707CBD0000206000404D
:1029000040150440401704403E0000203C000020D9
:102910007000002030B5164C227880231A432270B4
:10292000144A0023012500280AD001280AD00228D1
:102930000ED003280ED004280ED0052816D00DE0A6
:1029400013770BE01577E07810221043E07005E074
:10295000822002E0C22000E00320107706480382B4
:10296000064A1570064A1370018230BD4320F4E711
:102970002004024060040440404F04405C61004079
:102980005C60004010B5094800240470172001F075
:1029900075FA074804700748018A0122D2031143DF
:1029A0000182018A0904FCD510BD00005C60004072
:1029B0005C610040404F044010B507490120087099
:1029C000064900200870172001F058FA0448018ACF
:1029D0004904490C018210BD5C6100405C6000400C
:1029E000404F044003490020487103480A21017107
:1029F000C1707047C4020020F400002010B50948DF
:102A0000016A491C0162084A01215172036A9B064E
:102A100000D1D172006A400700D1917200F0A0F895
:102A200010BD0000D0000020C4020020F8B5494CC1
:102A3000A0780126484D022802D0A078042815D19C
:102A40006079002812D02079002802D0401E207121
:102A50000CE0E0782071022801D3801EE0706E71D6
:102A6000607800090C2801D0A07860706078002898
:102A70006ED02978002700291BD0112867D0212883
:102A800032D0412832D001283ED006283ED002283C
:102A900049D004283CD007283CD003283CD0052846
:102AA0003CD081283CD008283CD000090C283DD0DF
:102AB0004DE041284BD12E700020FFF749FA01214B
:102AC000022001F037F8FFF75BFB2449A86E88422B
:102AD00000DAAE7300F014FD0121002001F02AF8A5
:102AE000686BA8652E7132E022201CE0287D012849
:102AF0002DD02F700120FFF72BFA0121022001F0C9
:102B000019F800F0FDFC1BE003200CE027200AE090
:102B1000012008E0092006E0282004E0292002E046
:102B2000252000E02A20FFF725FB10E001290ED127
:102B30002F700120FFF70CFA0121022000F0FAFFAC
:102B4000A878002803D00121042000F0F3FF67706B
:102B5000F8BD0000F4000020C40200200000604026
:102B6000F8B500242146012000F05AFC0125002878
:102B700000D101240221012000F052FC002801D1E3
:102B8000022004430121084600F04AFC002801D13C
:102B900004200443674800214278944203D0C17066
:102BA00044708161F8BD634AC678634B2432032EBA
:102BB00007D2761CC6700570002CF3D15171597183
:102BC000F8BD94705D4E4769B74201D27F1C4761E2
:102BD0008769B74201D27F1C8761594FC669BE42DF
:102BE00001D2761CC661FF26F536002C68D05F6BDB
:102BF0009F65847041618369B34211D90679032EC0
:102C000000D90171012C05D10678002E02D0017087
:102C1000812656704B4EB34202D92646C0365670B6
:102C2000FA2B11D3022C08D0042C06D0012C04D08E
:102C30000378002B01D0017054708379002B03D0EE
:102C4000C379002B00D0C1715379002B0DD1557180
:102C5000022C10D0042C0ED0012C0CD08379002B28
:102C600000D0C1710A231371D370C269782A22D9A6
:102C700001710172F8BD54708379002B07D043793C
:102C8000DE070AD0022CECD15B1C4371EAE7042C6E
:102C9000E8D18571C5714571E4E7042CE1D15B1C75
:102CA000DBB24371052BDDD3C379002BDAD0C171C0
:102CB00008235370D6E7017A0029DBD10572F8BDED
:102CC000C16144693C2C15D20478002C27D00170D6
:102CD0008478012C05D1057A002D02D005796D1C70
:102CE000057141610579052D19D340345470017186
:102CF000817014E08478002C0ED00579022D04D068
:102D0000032D04D0052D04D005E0103402E020345A
:102D100000E04034547081708161017101729974D6
:102D20004269B242CBD38279002AC8D08171C17185
:102D30004171F8BDD0000020C402002060EA00000C
:102D4000102700004C1D0000FFB5561C0D465F1CEF
:102D50000CE0009C06E000222946204600F0F4FD2D
:102D6000641CE4B2B442F6D36D1CEDB2BD42F0D3A4
:102D7000FFBDFFB581B00027009128E00498019DB8
:102D800008280398007805D90A9A039900028C5CF8
:102D9000044300E0040200260DE0200401D50122D6
:102DA00000E000222846009900F0CEFD6D1C640072
:102DB000761CEDB2F6B204988642EED30398401C1E
:102DC00003900098401CC0B27F1CFFB200900A988C
:102DD0008742D3D305B0F0BDFFB582B0002635E001
:102DE00005980025C01DC00801902BE00B980499A0
:102DF00068438919405C0024EF0000900598391958
:102E000081421CD200980006039807D58019C1B2F0
:102E1000029838180019C0B2012206E08019C1B228
:102E20000298002238180019C0B200F08DFD0098F9
:102E3000641C4006000EE4B20090082CDED36D1C2A
:102E40000198EDB2A842D1D8761CF6B20B98864212
:102E5000C6D306B0F0BD10B5AE2000F0C5FE10BD63
:102E60007CB5FF2491342E25A04202D80446642864
:102E700018D364212046FDF7FDFA0A21FDF7FAFA7E
:102E80006846303101700A212046FDF7F3FA0C46FE
:102E90000A21FDF7EFFA684630314170214685700E
:102EA00030310EE00A21FDF7E5FA0C460A21FDF764
:102EB000E1FA684630310170214645703031817049
:102EC0003021C17000206946087128211948FDF79A
:102ED000CDFA184828214830FDF7C8FA154A0020D5
:102EE000593A1118E0314B7A401C9B099B01C0B242
:102EF0004B722828F5D310484078002801D00F4B9A
:102F000000E00F4B012000214824444365181E783F
:102F1000AD182035491CC9B25B1CEE760B29F5D3E0
:102F2000401CC0B20428EED36A4609210F2000F0ED
:102F30009FF87CBDB5010020C4020020B9740000D8
:102F4000DA7400007CB530212E240025642806D3D5
:102F500031226846027041708470C17010E06A4688
:102F600011700A21FDF786FA0E460A21FDF782FA52
:102F70006A4630315170314694703031D1701571DC
:102F80006846057128211A48FDF770FA184828216B
:102F90004830FDF76BFA164A0020593A1118E03113
:102FA0004B7A401C9B099B01C0B24B722828F5D379
:102FB00010484078002801D00F4B00E00F4B012053
:102FC00000214824444366181D78B6182036491C51
:102FD000C9B25B1CF5760B29F5D3401CC0B204289E
:102FE000EED36A4609210F2000F042F87CBD0000B4
:102FF000B5010020C4020020FB7400001C75000015
:10300000F8B515460F4604460A2615E04D2819D096
:1030100057281DD0FFF7CAF90A214843124908234F
:103020004218394620460096FFF7A3FE2878492823
:1030300018D00934E4B26D1C28780028E6D100F0DD
:10304000ADFDF8BD0A23094A39462046009605E041
:10305000064A0A231432394620460096FFF789FEB5
:103060000B34E7E7E41CE5E7505D0000045E000078
:10307000F0B58BB015460F460446142616E00146FF
:103080003039092909D8C8B2282148431449009683
:1030900042180B23394620461CE02E280BD020284E
:1030A00012D0242101A8FDF7E3F96D1C287800282F
:1030B000E5D10BB0F0BD0B230A4A394620460096F5
:1030C000FFF757FE241D08E0064A0B23503239460D
:1030D00020460096FFF74DFE0D34E4B2E5E7000010
:1030E000F45A0000845C0000F0B58BB015460F4622
:1030F0000446052622E001463039092907D8C8B21E
:10310000810040181B490096421803230CE0532805
:1031100019D057281ED02E2823D0242101A8FDF72E
:10312000A7F9032301AA009639462046FFF721FE9E
:1031300028782E281CD0241DE4B26D1C2878002885
:10314000D9D10BB0F0BD0B4A0323373239462046A4
:103150000096EBE7074A05233C32394620460096A5
:10316000E4E7044A03233232394620460096DDE77D
:10317000A41CE1E71E660000F0B58BB015460F46B3
:103180000446072620E001463039092907D8C8B28D
:10319000C100081A17490096421805230AE04F2873
:1031A00017D02E281CD0242101A8FDF761F9052392
:1031B00001AA009639462046FFF7DBFD28782E2825
:1031C00015D0A41DE4B26D1C28780028DBD10BB00B
:1031D000F0BD084A05234D32394620460096EBE7FC
:1031E000044A05234632394620460096E4E7A41CEB
:1031F000E8E70000FC5C00000346F0B5C000DB001F
:1032000018301833C6B2DBB21B205D1E5F1C441A97
:10321000002A0DD0E1B2E8B2012200F095FBE1B244
:103220000122304600F090FBE1B2F8B2012207E043
:10323000E1B2E8B2002200F087FBE1B2F8B200226E
:1032400000F082FBF0BD70B506460C46551C06E04A
:1032500001222146304600F077FB641CE4B2AC4208
:10326000F6D370BD10B500F083F9AE2000F0BCFCC1
:10327000402000F0B9FC812000F0B6FCAF2000F047
:10328000B3FC202000F0B0FC022000F0ADFCA12037
:1032900000F0AAFCA42000F0A7FCA62000F0A4FCEB
:1032A000A82000F0A1FC272000F09EFCC82000F020
:1032B0009BFCD32000F098FC002000F095FCD5206A
:1032C00000F092FC802000F08FFCD92000F08CFCF4
:1032D000222000F089FCDA2000F086FC122000F0A9
:1032E00083FCAD2000F080FC302000F07DFCDB2072
:1032F00000F07AFC202000F077FC8D2000F074FCB8
:10330000942000F071FC0120FEF79CFBAF2000F040
:103310006BFC02490120887110BD0000C40200202E
:10332000F8B5FF2269321A491A48FDF742F800F051
:1033300035FCFF20F53000F099FE154F0025FF21E8
:1033400069311448FDF792F800244720461B2046B7
:10335000482148430F4BC1193246C018FDF729F8E0
:10336000641CE4B2052CF2D300F018FC00F0D6FB8C
:10337000102000F07BFE6D1CEDB2482DDFD3FF2145
:1033800069310448FDF772F800F008FCF8BD000050
:10339000B66400005C010020F8B5FF2169311148D6
:1033A000FDF764F80F4E104F0025002420464821F9
:1033B0004843C11980192A46FCF7FBFF641CE4B29C
:1033C000052CF3D300F0EAFB00F0A8FB102000F07E
:1033D0004DFE6D1CEDB2482DE7D37D20C00000F0FE
:1033E00045FEF8BD5C010020B664000010B506483B
:1033F0008078002802D00121042001E00121002072
:1034000000F098FB10BD0000C402002001228A4099
:10341000024940180178914301707047000304404D
:1034200001228A40D1B2024A8018007808407047D1
:103430000003044070B501238B402A4C294ED9B2B9
:10344000294D284B203C403E861904194519C018C7
:10345000130000F0EDFC0714051420242D37230081
:1034600002788A430270287808432870207C8843B9
:103470002074307C084330742078884330E0027830
:103480008A430270287808432870207C884320747F
:10349000307C8843EFE702780A43027070BD0278FF
:1034A0008A430270287888432870207C884307E08C
:1034B00002788A430270287888432870207C084369
:1034C000207470BD02788A430270287808432870FF
:1034D000207C88432074307C8843307420780843F3
:1034E000207070BD600004402003044001228A4027
:1034F00002494018017811430170704700030440ED
:1035000030B51948FF22018B91320A24914201D92A
:10351000028302E00A2900D20483818F134B99426F
:1035200001D90021818700214B001B189D8B0A2D9A
:1035300001D29C8302E0954200D99A83491CC9B20A
:103540000529F1D30021052414254218203293794E
:10355000052B01D2947102E0142B00D99571491CFE
:10356000C9B20529F1D330BDC4020020E703000031
:1035700010B5052204210220FFF75CFF0421022080
:10358000FFF744FF012000F071FD01220421022019
:10359000FFF750FF04210220FFF7A8FF032000F0EF
:1035A00065FD10BD10B50B49012008700A488288DE
:1035B00008210A43828042898A43428107490020C8
:1035C00008700B2000F04EFC0548417802221143A0
:1035D000417010BD2C610040201104402C6000405F
:1035E0000003044010B50B49012008700A48828886
:1035F00008210A43828042898A4342810749002088
:1036000008700E2000F02EFC05484178022211437C
:10361000417010BD38610040201104403860004006
:1036200000030440F0B58FB000200A90009006908F
:103630000590079001F0B0FFB94C606BE065606BDE
:103640000D9001200C9009902074A07900280ED0D4
:1036500000F06AFA002803D00121002000F06AFA85
:10366000606BE065676BE07E012802D006E0022116
:10367000F3E7AB48AB49203080790880607DFEF7E6
:10368000D9FA002520463E300890E08DA18D884271
:103690000ED204210920089AFEF720F8A24960659D
:1036A000884215D2079808280CD2401CC0B2079057
:1036B000616BE06DFF302D30814222D90C980128DA
:1036C00008D01EE0257405210220FFF70FFFA3E0BC
:1036D0000020ECE7FEF754F9002812D000200C90EF
:1036E000A08F9249401C80B2A087884200D9A5874C
:1036F00001202071A06EFEF71BFBFEF7E5FB00F03A
:103700004DFA606BB84264D0676B00F007FA607ADC
:10371000002827D06572FEF733F9002803D08448CB
:103720008078072802D1E07E002806D08048807883
:10373000012815D0E07E002812D00698401C80B2E7
:1037400006900C280ED90020069025740521022031
:10375000FFF7CCFE002009900420FEF70BFD01E0EE
:1037600000200690606BE16D401A6421FCF782FE38
:103770000099064688422CD00096E07E002815D09D
:10378000684B1888B0421FD80599491CC9B20591E9
:1037900005290FD249001A460A3A515AA1850599BE
:1037A000611820318979401818800DE0F0B2FFF7D8
:1037B000C9FB0CE0257405210220FFF797FE0020CD
:1037C00009900420FEF7D6FCF0B2FEF7C5F900F030
:1037D000E5F9A07A00287DD0A572FEF7ABFD55492A
:1037E00088421EDC0A98401C80B20A90032818D92F
:1037F00001F076FF0127E771FEF7C2FC4E48007822
:10380000012809D00220E08226460720FEF7B2FCFC
:10381000707D012802D07DE008206CE07575F7739B
:1038200078E0606BE16D454A8918884206D92574B5
:1038300005210220FFF75AFE04205EE0FEF7EEFDB0
:103840003F49884201DC881555E0616B7D220D9867
:10385000D2008018814259D9606B0D9025740521E2
:103860000220FFF743FE07210320FFF7CFFD64206E
:1038700000F00AFC08210920089AFDF72FFF01211A
:1038800006460903881BFDF7DCFA029001913046D9
:10389000FDF7D7FA0122FDF7FBFB019B029AFDF72A
:1038A00083F8FCF797FE2749884229DD0821092083
:1038B000089AFDF713FF064601200003801BFDF761
:1038C000C0FA049001913046FDF7BBFA0122FDF7E2
:1038D000DFFB00E01AE0019B049AFDF765F8FCF7B6
:1038E00079FE184988420BDD07210320FFF7FEFD12
:1038F000E08A01210843E0820720FEF73BFC09E053
:1039000007210320FFF7F2FD012020740998002809
:1039100000D0BAE601F0E4FE25730FB0F0BD000060
:10392000C402002042030020870F0000E7030000CC
:10393000F400002066663640B0000020102700002A
:10394000666606400000204110B5472800D9472090
:10395000272900D92821CB08482463431818FF23BE
:103960006833984200D91846074B0124002A1A5C94
:1039700004D04907490F8C40224303E04907490F0F
:103980008C40A2431A5410BD5C01002010B50120E8
:10399000FEF7CAFE0220FEF7C7FE0420FEF7C4FEB3
:1039A0000820FEF7C1FE10BD10B505210220FFF76B
:1039B0009DFD042205210220FFF73CFD0521022088
:1039C000FFF794FD042206210220FFF733FD0621B4
:1039D0000220FFF71BFD042203210120FFF72AFD2F
:1039E00003210120FFF712FD042207210320FFF726
:1039F00021FD07210320FFF779FD03220021104656
:103A0000FFF718FD042211460220FFF713FD0421E1
:103A10000220FFF7FBFC042201210020FFF70AFD32
:103A200001210020FFF7F2FC042202210020FFF711
:103A300001FD02210020FFF7E9FC00220221032002
:103A4000FFF7F8FC032205211046FFF7F3FC0122E3
:103A500011460320FFF7EEFC012206210320FFF7A9
:103A6000E9FC012200211046FFF7E4FC01220221BB
:103A70001046FFF7DFFC012211461046FFF7DAFC83
:103A8000002211460220FFF7D5FC0022012102206E
:103A9000FFF7D0FC10BD10B500F076FC10BD0000A3
:103AA00000B5FDF723FF0149086000BD5801002063
:103AB00000B5FDF71BFF0C4908600C4980204871D8
:103AC00000200B49C04308600A4908600B490A48B6
:103AD000086048608860C860086148618861C861A2
:103AE0000749AC20487000BD580100202004024066
:103AF00080E200E000E100E0C0C0C0C000E400E0FF
:103B00000010024003490874034801884906890FE0
:103B1000FBD1704700130440001104400149AC2060
:103B20004870704700100240014914200856704741
:103B3000C402002002460848D2B2037DC374027555
:103B40009000064A1058083A5060002902D00268D6
:103B50000846104770470000C40200203C010020C6
:103B600010B501210846FEF705FD0120FEF7B6FD60
:103B700001210220FEF7FEFC0220FEF7AFFD01212D
:103B80000420FEF7F7FC0420FEF7A8FD0121082021
:103B9000FEF7F0FC0820FEF7A1FD10BDF8B5114FAF
:103BA00000242046B030C0B200F01EF8112000F012
:103BB0001BF80C2000F018F801F0E4FC0025482068
:103BC000264646437019385C00F01EF86D1CEDB2B5
:103BD000482DF7D3FEF7A8FC641CE4B2052CE0D313
:103BE000F8BD00005C01002010B50446FEF772FC31
:103BF000782000F009F8002000F006F8204600F0D8
:103C000003F8FEF791FC10BD70B5044600252006B0
:103C100004D501210020FFF769FC03E00121002009
:103C2000FFF7F4FB00BF00BF00BF00BF00BF00BF35
:103C300000BF00BF00BF00BF00BF00BF02210020C7
:103C4000FFF754FC00BF00BF00BF00BF00BF00BFB4
:103C500000BF00BF00BF00BF00BF00BF02210020A7
:103C6000FFF7D4FB60066D1C040EEDB2082DCED319
:103C700000BF00BF00BF00BF00BF00BF00BF00BF4C
:103C800000BF00BF00BF00BF01210020FFF72EFCD6
:103C900000BF00BF00BF00BF00BF00BF00BF00BF2C
:103CA00000BF00BF00BF00BF02210020FFF71EFCC5
:103CB00000BF00BF00BF00BF00BF00BF00BF00BF0C
:103CC00000BF00BF00BF00BF02210020FFF79EFB26
:103CD00070BD000070B54148C18A4A0701D5042073
:103CE00002E00A0703D50620FEF732F970BD8A0705
:103CF00001D50520F8E7CA0701D00920F4E7384AC2
:103D0000CB060FD537493848FCF753FB374C172102
:103D100020202268FFF730FA202108206268FFF790
:103D20002BFA50E04B0601D50820DDE78B0603D5C2
:103D30004078FEF74BF870BD0B0647D52C49846ED2
:103D40002C4E651825490123C97EB54210D8FF24A1
:103D50002D3400290AD000214D002D18491CC9B26C
:103D6000AC830529F8D30371234932E00483FAE7D1
:103D7000224D234E6519B54210D8C82400290BD016
:103D800000214D002D18491CC9B2AC830529F8D378
:103D900003711C4914481DE00483F9E71A4D6419A6
:103DA0001A4DAC42C7D8642400290AD000214D0026
:103DB0002D18491CC9B2AC830529F8D303711449E5
:103DC00007E00483FAE7FFF7E9FE70BDC805FCD5FC
:103DD00010490548FCF7EDFAF5E70000C4020020A1
:103DE000680100003D7500005C010020A400002077
:103DF000666666C1C2F56800517300003333F3C0D4
:103E00008FC23500E9710000333373C014AE270050
:103E100081700000496C000010B5FFF77FFE034879
:103E2000016904221143016130BF10BD00ED00E0C3
:103E300030B47446641E2578641CAB4200D21D4623
:103E4000635D5B00E31830BC18470000002805DB09
:103E5000C106C90E01208840014908607047000072
:103E600080E200E0002805DBC106C90E0120884081
:103E7000014908607047000080E200E0002805DB8F
:103E8000C106C90E01208840014908607047000042
:103E900080E200E08307FF22DB0E9A408907090ECB
:103EA0009940002808DB830809489B001B18186804
:103EB00090430843186070470007000F08388308D4
:103EC00004489B001B18D86990430843D861704789
:103ED00000E400E000ED00E030380A2801D20120C3
:103EE00070470020704700000349002801D00348B4
:103EF00000E001200862FEE700800240AD0B0000F8
:103F000010B5084A0C21515E0823D35E9289C91A64
:103F1000101A00B23C225043FCF7B6FA193000B236
:103F200010BD00006006500010B50C49002008705C
:103F30000B49CA7B0B4C60680270401C6060CA89E8
:103F4000A0680280801CA060E068401CE0600E2039
:103F5000085EFFF7D5FF208010BD000054600040D0
:103F6000005004400800002010B50020034602E085
:103F700010C960405B1C9342FAD310BD10B5264CAB
:103F80002078002844D022463E3208210920FDF73F
:103F9000A5FB2249FF23F53300224880984211D91E
:103FA0000A704878401CC0B24870022830D94A7064
:103FB000A07B00282CD0606BA065A2731848A26675
:103FC000027026E0C82823D24A700878401CC0B28C
:103FD000087014281CD90A70A07B002818D1012071
:103FE000A073606BA065FEF7CBF80E49A06E0E4A79
:103FF0004118914209D90D490D4A4118914204D9FD
:104000000C4940180C49884203D82620FEF7B2F824
:1040100010BD0620FAE70000C4020020FC000020CA
:10402000B0000020666666C1C2F568003333F3C095
:104030008FC23500333373C014AE2700034900200C
:10404000087003480168491C0160704760600040C7
:104050000000002003490020087003484168491C03
:1040600041607047646000400000002010B50A21E4
:10407000044C4843A06301E0FFF750FDA06B00280B
:10408000FAD110BDC402002070470000F8B5404CC2
:10409000A07800280ED0606BA16D3E4A8918884236
:1040A00007D9FFF741FD042803D001210420FFF7C1
:1040B00041FDF8BD2078002808D1616BA26D36481B
:1040C0001218914202D2A16D08186063606BA16D55
:1040D000324A89188842ECD3FEF7BDFE0025A5714F
:1040E000062020752E488078FFF75EFCFDF776FBF2
:1040F000FDF76CFB2B480178DF2211400170012194
:104100000320FFF78DF9284F002828D0062103202F
:10411000FFF786F9002822D024490120FEF7FAFB98
:10412000FFF71EFDFEF72EFC214E224805603D6084
:104130003560FFF771FE00BF306800280BD0012109
:104140000320FFF76DF9002805D006210320FFF7B3
:1041500067F90028E9D1FEF72FFCFFF717FCFEF7FF
:1041600009FBFDF7FBFA3868002800D0A5736563EA
:10417000A565FFF7C5F900210620FFF7DBFC052147
:104180000220FFF7B3F90F20FFF770FFF8BD000022
:10419000C402002088130000E02E0000983A0000BE
:1041A000F40000202004024090000020701700005E
:1041B00098000020840000200020C043704710B504
:1041C0000446C0B2FFF79EFC0A2C02D10D20FFF777
:1041D00099FC204610BD0000F3B585B0016803913D
:1041E0004168029181680191C16810300091F0C866
:1041F00013A0FCF71DF818A00399FCF719F819A0F3
:104200000299FCF715F81AA00199FCF711F81BA008
:104210000099FCF70DF821461BA0FCF709F8294688
:104220001CA0FCF705F831461FA0FCF701F8394641
:1042300022A0FBF7FDFF26A00699FBF7F9FFFEE79A
:104240005B48617264206661756C742068616E649D
:104250006C65725D0D0A00005230203D2025780DFE
:104260000A0000005231203D2025780D0A00000090
:104270005232203D2025780D0A0000005233203DA7
:104280002025780D0A000000523132203D2025788B
:104290000D0A0000537461636B6564204C52203D2D
:1042A0002025780D0A000000537461636B6564205B
:1042B0005043203D2025780D0A00000053746163AF
:1042C0006B656420505352203D2025780D0A000074
:1042D00043757272656E74204C52203D2025780D16
:1042E0000A00000070B5FEF745FA0D480B4900685A
:1042F000FCF7C0F80B4C401E606103210D1F2846DF
:10430000FFF7C8FD0020A06107202061002128469A
:10431000FFF7C0FDFDF722FA70BD00001027000076
:104320005801002000E000E0034900200870034825
:104330000168491C0160704704600040840000204F
:1043400003490020087003484168491C41607047D8
:1043500008600040840000200349002008700348E2
:104360008168491C816070470C6000408400002017
:104370000349002008700348C168491CC1607047A8
:10438000106000408400002070B5194C0026207C8D
:10439000002813D0E08D401CE085E08D642800D912
:1043A000E685E08DA18D884204D205210220FFF729
:1043B0002DF803E005210220FFF798F80D4DE8687D
:1043C000401CE8602969491C2961282802D9EE604F
:1043D000FEF714FB2869092803D92E61606B401C85
:1043E0006063A06B002802D0A06B401EA06370BD6C
:1043F000C4020020D00000200349002008700348B8
:104400004168491C416070475C6000409400002096
:1044100008B5754801260027C671FFF741FB072143
:104420000320FFF763F805210220FFF75FF8FFF78D
:1044300059FFFFF773FB6D4C0021E6710120FEF779
:10444000EFFF002824D00020FDF782FD0020FDF7BB
:10445000F9FA01200090FDF7D9FD6548808C85B2FE
:1044600064482918FF209C3081421FD3FF21693105
:104470006148FBF7FBFFFDF715FDFFF78FFB0221FE
:104480000120FEF7CDFF00280AD0FFF747FBF6E733
:104490000620FDF75DFD5948FFF7E8FD0020D9E74C
:1044A00001210846FEF7BCFF0028E8D12846FCF7AA
:1044B000C8FC0022524BFCF7C7FC0B22D243FCF78E
:1044C000E7FDFCF787F84F492067884202DA4E493A
:1044D000884201DC4D4820670025A565FDF714FFE3
:1044E000FDF792F9A57365632670E582A6743F4ACD
:1044F00008213E320920FDF7F1F8C82801D2A67341
:1045000001E0A566A5730098002826D000210620AA
:10451000FFF710FBA06D3E494018606300F07EF885
:10452000A07A002804D0A572FEF780FAFFF726FDD6
:10453000607A002823D06572FFF7F0FAFDF72CFAB5
:1045400038467F1CFFB27D2819D90027FDF75CF99A
:104550003048807800280ED00FE0A08F2E49401CF4
:1045600080B2A087884200D9A5872671FDF7B2FDE9
:10457000FEF73CFFD2E7FDF7ADFDFFF787FDFDF746
:10458000FFF90028CAD002210120FEF749FF0028C8
:10459000C4D001210846FEF743FF0028BED0207892
:1045A0000028BBD0207D002808D0062806D004288B
:1045B00004D00328B2D1E08A8028AFD1A07C0028A3
:1045C000ACD10120FFF752FDA6746078002803D01B
:1045D0002420FDF7CFFDA1E7FDF7D2F900289DD0FB
:1045E00001F092F89AE7000000040240C4020020A3
:1045F0004006500012F9FFFF5C010020C4090000D2
:1046000000000840CDCCCC3F6666A63F9A99B93FE2
:10461000983A0000F4000020E703000010B5FDF711
:10462000A1FD0B4C00280CD061688968884740B216
:10463000002806DB07490978002902D00121FFF78D
:1046400079FA6068002802D041680020884710BDD0
:1046500034010020C402002020220E4902280DD07F
:1046600001280BD0032809D005280CD026280CD00F
:1046700007280CD0242804D0FF2070474878002851
:10468000FBD0CA8203E0002070478020C88203204C
:1046900070470000C4020020104920224B780128F6
:1046A00013D0022811D024280DD0092809D00628BB
:1046B00007D007280FD0032807D0052807D02628C1
:1046C00007D0FF207047CA8205E0002BFBD10020F5
:1046D00070478020C882032070470000C402002079
:1046E00070B5012842D0022840D003283ED00428CB
:1046F0003CD005283AD000222049082810D00B468B
:10470000DD7E5B7828280DD00124292811D02628A9
:1047100017D0222818D0272819D0092824D025E01E
:10472000CA8229E0002D21D0002B1FD1CA824A74F1
:1047300005E0002D1AD0002B18D1CA824C7401203C
:1047400070BD8020C8820DE0CA82052070BD887DC2
:10475000800607D520200C71C882002B01D04A703A
:1047600000E04C70032070BD002B01D0FF2070BD15
:10477000CA828A87FFF712FA002070BDC4020020A7
:10478000F8B5012700261A4D1A4C01280BD0022833
:1047900009D0032829D021468022897B052814D0FE
:1047A00026281BD021E0FEF71DF9E07E00280AD064
:1047B000E6760220FDF7CCFB606BA860606B68605A
:1047C0006E70277111E0E776F3E72878002801D0B2
:1047D000002906D12E70A7740020F8BD2F70002983
:1047E00003D02E70E2820320F8BDFF20F8BD000048
:1047F000BC000020C4020020F8B57A4C7A4D227922
:10480000697900260127A378012814D002287ED0D8
:1048100003280FD02946C97E282874D0292873D0B0
:104820002728F6D0052870D00628F2D00728F0D027
:1048300026286BD0D4E0002A02D0002900D12671AE
:104840001846FDF793FD0246A1780020FDF7B4FB62
:10485000687C0028A07816D0281820308179491C5F
:10486000C9B2817114293AD96979002935D02179E1
:1048700000292DD06A6B7D216369090159188A428C
:1048800029D905216AE040004019818BFF22491C8B
:1048900089B291328183914216D96979002911D068
:1048A0002179002908D06A6B7D21636909015918B3
:1048B0008A4204D90A216DE02771696B6161FF2189
:1048C000913100E00A218183A078FDF7DFF809E04B
:1048D0002771696B6161142100E005218171A07865
:1048E000FDF770F9A078FDF741FD0246A17801209F
:1048F000FDF762FBFFF752F92F71686B2061686B5F
:10490000E0606DE003E052E055E059E067E0002A26
:1049100002D0002900D126711846FDF727FD024676
:10492000A1780020FDF748FB687C0028A0781AD009
:10493000281820308179491EC9B281710529CED24B
:1049400069790029C7D0217900292CD06A6B7D2193
:104950006369090159188A42BFD9142181712671EE
:10496000FEF740F8BBE740004019818B491E89B231
:1049700081830A29A8D269790029A0D02179002948
:104980000DD06A6B7D216369090159188A4299D952
:10499000FF21913181832671FEF724F894E7277176
:1049A000696B61618EE72771696B616195E7002929
:1049B00016D06E7402E0002912D06F740120F8BD89
:1049C0002078002807D0A87B002804D026708020FB
:1049D000E8820320F8BD2670AF740020F8BD277070
:1049E000FF20F8BD04010020C4020020F8B5624C8D
:1049F000624A624BE77E92787D211B6909013A4346
:104A000094465918627800915C4B66795B78002176
:104A10009E460125238B01281CD0022841D0032863
:104A200017D028286CD0292876D027287BD00528B5
:104A30000FD006286CD007286BD026286AD02428EF
:104A40002DD0092867D0042874D0222873D02A28B2
:104A500072D08AE049487746002F02D0002E00D15C
:104A600041706746002F46D1002A18D15B1C9BB2CB
:104A7000FF2291322383934237D9002E0DD0437801
:104A8000002B05D0636B009EB34204D90A2224E0B8
:104A90004570616B0161228327E00A2024E0202019
:104AA00068E036487746002F02D0002E00D14170D2
:104AB0006746002F59D1002AF1D10A2B02D95B1E7B
:104AC000238312E0002E0DD04278002A14D0636BAD
:104AD000009A9342E1D9FF22913222834170FDF77F
:104AE00081FF02E0FF2091302083208BFEF7B8F990
:104AF000FFF754F8257138E04570616B0161F4E708
:104B0000002F32D0002A30D161740AE004E00AE0BC
:104B100015E018E019E01AE0002F26D0002A24D171
:104B200065740120F8BD20202571E082002A04D0A0
:104B3000617008E013E01AE01BE0657003E0A06E0E
:104B4000FDF7F6F808E00320F8BD802012E0002A07
:104B50000BD1A187FDF724F9FFF720F805E00748FE
:104B60000570616BC160617D0171FF20F8BD05209A
:104B7000F8BD1020E082E6E7C40200201C010020FE
:104B80000020704770B5274D274CA878002827D003
:104B9000696B6068FF30F530814232D92078401C63
:104BA000C1B221702846407D05290ED92070E978D0
:104BB000002901D005200AE0002809D0401EC0B21B
:104BC0002070052804D3042001E0884200D9207019
:104BD0002078FDF741F8686B6060A878002810D154
:104BE0002878002803D00520FDF7C4FA09E0607892
:104BF000002815D00120FCF725FF00206070687D9B
:104C00002070287800280BD008488078002807D02A
:104C10006878002801D0242000E00520FDF7AAFADA
:104C2000002070BDC40200209C000020F400002081
:104C300010B50D4CA078002805D02078002811D0A0
:104C40000520FDF797FA207800280BD007488078D8
:104C5000002807D06078002801D0242000E005203B
:104C6000FDF788FA002010BDC4020020F4000020E7
:104C700010B5074807498068496B7D2212018018EA
:104C8000814202D90820FDF775FA002010BD00000E
:104C9000A4000020C4020020F8B5334C207800287E
:104CA00057D0616B314D0026A868C830814246D983
:104CB000616B6868FF309130814212D968780028B2
:104CC0001BD06E70E17E25200029009031D0082392
:104CD000274A01210320FEF77FF8FEF75FFF606B94
:104CE0006860606B234AA9688918884229D9052021
:104CF000FDF740FA606BA06523E00C211E48FBF72E
:104D0000B5FB1D480C214830FBF7B0FB1A480C21BD
:104D10009030FBF7ABFB18480C21D830FBF7A6FB13
:104D20000C211648FBF7A2FBFEF738FF0120687044
:104D3000D5E70F4A0823253A01210320CBE7606B12
:104D4000686000210120FEF76BFB002802D0AE70E6
:104D50000020F8BDA8780A2802D2401CA870F7E706
:104D60000520FDF707FAF3E7C4020020BC0000208D
:104D700084660000881300005C0100207C02002093
:104D8000F8B5504D696B504C012720690026C8309A
:104D900081422DD9696BE068FF309130814210D992
:104DA000617820468078002917D06670FDF7DEFA1A
:104DB0000246A1780120FDF7FFF8FEF7EFFE686BD1
:104DC000E060686B414A21698918884212D9686B92
:104DD000A8650520FDF7CEF90CE0FDF7C7FA0246FD
:104DE000A1780020FDF7E8F8FEF7D8FE6770E6E747
:104DF000686BE06036488178012907D08078002808
:104E0000E0782AD0002857D0E67055E0686B206122
:104E1000686BE060E078002810D1E77060780028C7
:104E20000AD06670A078FDF7A1FA0246A1780120A9
:104E3000FDF7C2F8FEF7B2FE686BA060686B4B220C
:104E4000A16812018918884236D9686BA060AF74D6
:104E5000E6700520FDF78EF92EE000282CD0E670D4
:104E6000A0780746FDF782FA0246A1780020FDF7F8
:104E7000A3F8A078401CA0703846FDF777FA0246E8
:104E800039460120FDF798F8A078042800D9A670CB
:104E9000687C0028A07811D0FCF794FEA078FDF77C
:104EA00065FA0246A1780120FDF786F8FEF776FE46
:104EB000686B2061686BE0600020F8BDFCF7E6FDE0
:104EC000ECE70000C4020020040100208813000069
:104ED000F400002070B53F4D3F4CAA782846217958
:104EE000407D002A21D06B6BA268FF32F5329342DD
:104EF00026D9491CC9B2217105290ED92071E9783A
:104F0000002901D0052007E0002806D0401EC0B2CD
:104F10002071052801D3042020712079FCF78AFE36
:104F2000FEF73CFE686BA0600AE02A7CE3781A4337
:104F300006D1884204D02071FCF77CFEFEF72EFEDD
:104F4000A878E178884209D0E070002806D1687D11
:104F5000FCF770FEFEF722FE687D207120780026A7
:104F600000280ED0686B1D4AE1688918884208D96C
:104F70002670E87E00280CD00020FCF787FDFEF7A5
:104F80000DFEA1781648002908D08178002904D0A8
:104F900004E0288BFDF764FFF1E7A670697800292B
:104FA00015D02978002910D0807800280DD0696BA1
:104FB0006069323081420AD9686B6061A07800284C
:104FC00005D12420FDF7D6F801E0686B6061002070
:104FD00070BD0000C40200201C010020DC050000A0
:104FE000F40000200020704710B50B480B49827870
:104FF0004A70427D0A70426B4A608079002803D073
:105000000020FCF71FFD01E0FEF72CF90320FCF760
:105010009FFF002010BD0000C40200209C00002063
:105020000020704710B50848416B084A91608079AC
:10503000002803D00020FCF705FD01E0FEF712F97F
:10504000FEF748FE002010BDC4020020A40000208E
:1050500010B50A4800220A4902704B6B43604B6B43
:105060008360427082708879002802D00020FCF7AB
:10507000E9FC0220FCF76CFF002010BDBC00002002
:10508000C402002070B5284C00202070E070A17888
:10509000042901D90421A170244D696BE160696B79
:1050A00021616070A879002803D00020FCF7CAFCB9
:1050B00001E0FEF7D7F86878FF22693200281C4823
:1050C00002D08721C90001E02D21090141181948AA
:1050D000FBF76FF900263046FDF748F902463146E6
:1050E0000120FCF769FF761CF6B2052EF3D3687C2D
:1050F000012808D0A078FCF7C9FCFCF751FEFEF7A8
:105100004DFD002070BD0B4A002011184031CB7EB0
:10511000401CDB09DB01C0B2CB762428F5D3A07894
:10512000FCF750FDE9E7000004010020C402002064
:10513000165F00005C01002010B50D480121817050
:10514000002141700B494A6B82608A78C2704A7DA7
:1051500002718879002803D00020FCF773FC01E07D
:10516000FEF780F80220FCF7F3FE002010BD0000DF
:105170001C010020C40200200020704710B50C481C
:10518000817F0C4ACB060021002B04DA837FEF24B9
:10519000234083771170837F1B0708D5837FF72413
:1051A00023408377117004480168491C016010BDD9
:1051B000404F04405860004094000020F8B52F484C
:1051C000002606702E480188CA07D20F69460A7069
:1051D0000978018169460978012908D0294D2F886D
:1051E0002B4C294B29492268002F06D102E0684642
:1051F0000078F8BD0F88012F1ED9002A07D01E7C29
:105200001670521C22600A88521E0A8002E01A7C24
:1052100069460A701F490A68002A07D01078187476
:10522000521C0A602888401E2880F8BD008A40046D
:10523000FBD4FF201874F8BD0D88012D0ED1058810
:10524000AD06FCD5002A05D01B7C13700A88521EBF
:105250000A8002E01A7C69460A7026600D490A68D5
:10526000002AE8D0028A520402D5028B520402D4EA
:1052700002885206FCD40E60F8BD00002860004091
:1052800000110440260000200013044024000020E8
:105290004400002048000020F8B5314C6088C10768
:1052A000C90F684601700078608168460078002662
:1052B000012809D02B4803882D4D2B4A2B482D4F10
:1052C0002968002B06D102E06846007844E0038894
:1052D000012B1ED9002907D0937C0B70491C296033
:1052E0000188491E018002E0907C69460870386898
:1052F000002808D001789174401C38601948018852
:10530000491E018028E0608A400425D4FF20907463
:1053100022E00388012B10D163889B06FCD500296D
:1053200005D0927C0A700188491E018002E0907CC1
:1053300069460870FEF736F92E60386800280BD0F1
:10534000608A400402D5608B400402D46088400625
:10535000FCD4FEF727F93E6007480670F8BD000050
:10536000001104402A0000200013044028000020FF
:105370004C000020500000202C600040F8B52F4861
:10538000002606702E488188CA07D20F69460A7027
:105390000978818169460978012908D0294D2F882B
:1053A0002B4C294B29492268002F06D102E0684680
:1053B0000078F8BD0F88012F1ED9002A07D01E796A
:1053C0001670521C22600A88521E0A8002E01A7966
:1053D00069460A701F490A68002A07D010781871B8
:1053E000521C0A602888401E2880F8BD808A40042C
:1053F000FBD4FF201871F8BD0D88012D0ED18588D2
:10540000AD06FCD5002A05D01B7913700A88521E00
:105410000A8002E01A7969460A7026600D490A6816
:10542000002AE8D0828A520402D5828B520402D428
:1054300082885206FCD40E60F8BD00003460004043
:1054400000110440340000204013044032000020CA
:105450005C00002060000020F8B5314CE088C107F6
:10546000C90F684601700078E08168460078002620
:10547000012809D02B4803882D4D2B4A2B482D4F4E
:105480002968002B06D102E06846007844E00388D2
:10549000012B1ED9002907D093790B70491C296074
:1054A0000188491E018002E09079694608703868D9
:1054B000002808D001789171401C38601948018893
:1054C000491E018028E0E08A400425D4FF20907125
:1054D00022E00388012B10D1E3889B06FCD500292C
:1054E00005D092790A700188491E018002E0907906
:1054F00069460870FEF776F82E60386800280BD0F1
:10550000E08A400402D5E08B400402D4E0884006E3
:10551000FCD4FEF767F83E6007480670F8BD00004F
:1055200000110440380000204013044036000020E1
:10553000640000206800002038600040F8B506468E
:105540000C46FBF787FF051E0F4600D001200143E4
:1055500049000B484908411AC90F0DD0002E01D04F
:10556000012100E000210C4361004908401AC00FEE
:1055700002D10120FBF7B3FE28463946F8BD0000F2
:105580000000F07F10B5FCF7A5FF7820FEF73CFB8C
:105590004020FEF739FB10BDF8B507210320FDF7C9
:1055A000A5FF05210220FDF731FF0120FEF75EFD7A
:1055B000FCF75EFF05210220FDF798FF4248434FAC
:1055C000856EC07E424E002841D000242846FBF75D
:1055D0008FFD0F4605463C4866003018808BFBF770
:1055E00030FC0022394BFBF7DFF90022394BFBF787
:1055F000ABF9FAF7EFFFFBF77BFD2A463B46FBF7DB
:1056000023FCFFF79BFFFAF7E5FF31494860324979
:1056100000F006FA2C49C96EFBF794FDFBF742FE39
:105620002E49641C8853052CD5DB08460188264882
:1056300081852548818D642901D365218185808DEF
:10564000642803D305210220FDF7E0FEF8BD1E4CBF
:10565000208B642830D9C82809D9FBF7F2FB002237
:105660003B46FBF7A1F9002201239B0707E0FBF76C
:10567000E8FB00223B46FBF797F90022154BFBF7AE
:1056800063F9FAF7A7FF0146284600F0C9F9FBF7CE
:105690002FFDFFF753FFFAF79DFF7060E56E69007D
:1056A000090EC6D00C4900F0BBF92946FBF74AFDAC
:1056B000FBF7F8FDA085BCE7FBF7C3FB00223B46E8
:1056C000FBF772F9DDE70000C4020020000024406F
:1056D000FC0000200000F03F0000C842380300201A
:1056E00010B5044800210174818505210220FDF7D1
:1056F000FDFE10BDC402002002480168491C016083
:105700007047000080000020F8B52E4C0026E07B9A
:105710000125002814D0E5710420FEF7A7FCFCF752
:105720002FF9002849D00420FEF7A0FCFCF728F947
:10573000002842D0607D012800D16675022022E059
:10574000FCF71EFD204F21493878097808431FD007
:10575000E5710420FEF78AFCFCF712F900282CD032
:105760000420FEF783FCFCF70BF9002825D03878DD
:10577000002801D0E58207E01549A06E884201DAD1
:10578000082000E00420E0820720FCF7F3FC14E08E
:10579000032200211046FDF74DFE03210120FDF7F5
:1057A000A5FEA573FDF73EFF03210120FDF72EFEA8
:1057B000032200211046FDF73DFE606BA065E672F6
:1057C000F8BD0000C4020020B1000020B00000209D
:1057D000CDCCCC3D26490822CA60F1220A6255226E
:1057E0004A60AA228A600022D24302600868C00789
:1057F000FCD008680122104308600020C860704790
:105800001B491022CA60F1220A6255224A60AA226C
:105810008A600022D24302600868C007FCD0086892
:105820000122104308600020C86008620868400731
:1058300001D50120704700207047F0B50C4BF124D2
:105840001C620024AA2601250DE05E6055279F609A
:1058500017780770401C521C1F68FF07FCD01F6898
:105860002F431F60641C8C42EFD300201862F0BDF0
:10587000000002403649002008707047F0B503462A
:10588000FFB00020012584B06E020190B14203D91F
:1058900080207FB004B0F0BD1C46002006E02778D1
:1058A000641CFF2F00D00025401C80B28842F6D334
:1058B000002D01D0184647E0580A4402E01DFF3091
:1058C000FA305D180090A84201D2012600E00026BF
:1058D000580ADB05DB0D40029C4602AD002E0AD0C3
:1058E00000230778EF545B1C01279BB2BF02401CCA
:1058F000BB42F6D309E000230778EF545B1C012775
:105900009BB27F02401CBB42F6D3002007E06346F7
:105910001F181578401C02ABDD5580B2521C88421E
:10592000F5D3002E204609D0FFF76AFF0098FFF755
:1059300067FF0121204602AA890205E0FFF760FF08
:105940000121204602AA4902FFF777FF0198A0E74C
:105950007C60004070B501250C002D051C4310D45F
:10596000EC4206D4AC420AD4994200D070BD9042B9
:1059700070BDE94217D4EB4215D4994270BD8942FB
:1059800070BDEC4206D5AC42F9D58B4200D070BD5B
:10599000824270BD6D004C00EC4204D25C00EC42CF
:1059A00001D28B4270BD034C30B4FBF70BFD30BC11
:1059B00070BD00BF1900160470B501251C002D052F
:1059C0000C4310D4EC4206D4AC420AD48B4200D033
:1059D00070BD824270BDEB4217D4E94215D48B42B0
:1059E00070BD9B4270BDEC4206D5AC42F9D59942E0
:1059F00000D070BD904270BD6D005C00EC4204D2DE
:105A00004C00EC4201D2994270BD0FB4034C0CBC67
:105A100003BC30B4FBF7D6FC30BC70BD19001604D3
:105A200070B5420064414B005C41120E39D01B0E30
:105A300038D0FF2A3CD0FF2B3AD040024902400A1E
:105A4000490A060045184E43000A090AD21848437D
:105A5000ED017F3A0104731A4019190C4318990F8C
:105A600004D001215B0849075B1A521CD80904D3F2
:105A7000401CF50301D19D0607D0FF2A08D2D505A9
:105A800006D0E4072043401970BD0125A843F4E780
:105A9000002A01DCE00770BD2402FF202043C0057E
:105AA00070BD1B0EFF2A03D0FF2B01D0E00770BD95
:105AB000FF2645003606B54206D84D00B54203D84C
:105AC000D218FF2A00D0E7E7004870BD0000C07F71
:105AD000E94F0000854B00005946000021500000AE
